{
  "contractName": "Registry",
  "abi": [
    {
      "inputs": [],
      "stateMutability": "nonpayable",
      "type": "constructor"
    },
    {
      "inputs": [
        {
          "internalType": "bytes32",
          "name": "_did",
          "type": "bytes32"
        },
        {
          "internalType": "string",
          "name": "_newHash",
          "type": "string"
        }
      ],
      "name": "setRecord",
      "outputs": [],
      "stateMutability": "nonpayable",
      "type": "function"
    },
    {
      "inputs": [
        {
          "internalType": "bytes32",
          "name": "_did",
          "type": "bytes32"
        }
      ],
      "name": "getRecord",
      "outputs": [
        {
          "internalType": "string",
          "name": "",
          "type": "string"
        }
      ],
      "stateMutability": "view",
      "type": "function"
    }
  ],
  "bytecode": "0x608060405234801561001057600080fd5b5033600160006101000a81548173ffffffffffffffffffffffffffffffffffffffff021916908373ffffffffffffffffffffffffffffffffffffffff160217905550610597806100616000396000f3fe608060405234801561001057600080fd5b50600436106100365760003560e01c8063213681cd1461003b5780635ab5ee37146100e2575b600080fd5b6100676004803603602081101561005157600080fd5b8101908080359060200190929190505050610165565b6040518080602001828103825283818151815260200191508051906020019080838360005b838110156100a757808201518184015260208101905061008c565b50505050905090810190601f1680156100d45780820380516001836020036101000a031916815260200191505b509250505060405180910390f35b610163600480360360408110156100f857600080fd5b81019080803590602001909291908035906020019064010000000081111561011f57600080fd5b82018360208201111561013157600080fd5b8035906020019184600183028401116401000000008311171561015357600080fd5b909192939192939050505061021c565b005b60606000808381526020019081526020016000206001018054600181600116156101000203166002900480601f0160208091040260200160405190810160405280929190818152602001828054600181600116156101000203166002900480156102105780601f106101e557610100808354040283529160200191610210565b820191906000526020600020905b8154815290600101906020018083116101f357829003601f168201915b50505050509050919050565b60606000808581526020019081526020016000206001018054600181600116156101000203166002900480601f0160208091040260200160405190810160405280929190818152602001828054600181600116156101000203166002900480156102c75780601f1061029c576101008083540402835291602001916102c7565b820191906000526020600020905b8154815290600101906020018083116102aa57829003601f168201915b50505050509050600081511415801561034157503373ffffffffffffffffffffffffffffffffffffffff1660008086815260200190815260200160002060000160009054906101000a900473ffffffffffffffffffffffffffffffffffffffff1673ffffffffffffffffffffffffffffffffffffffff1614155b15610397576040517f08c379a00000000000000000000000000000000000000000000000000000000081526004018080602001828103825260318152602001806105316031913960400191505060405180910390fd5b60405180604001604052803373ffffffffffffffffffffffffffffffffffffffff16815260200184848080601f016020809104026020016040519081016040528093929190818152602001838380828437600081840152601f19601f8201169050808301925050505050505081525060008086815260200190815260200160002060008201518160000160006101000a81548173ffffffffffffffffffffffffffffffffffffffff021916908373ffffffffffffffffffffffffffffffffffffffff160217905550602082015181600101908051906020019061047b929190610485565b5090505050505050565b828054600181600116156101000203166002900490600052602060002090601f0160209004810192826104bb5760008555610502565b82601f106104d457805160ff1916838001178555610502565b82800160010185558215610502579182015b828111156105015782518255916020019190600101906104e6565b5b50905061050f9190610513565b5090565b5b8082111561052c576000816000905550600101610514565b509056fe44494420726567697374726174696f6e206661696c65642e20496e76616c6964206469642070726976617465206b65792ea26469706673582212204b8e0920d82c4a0c3a0c255574a8996ff3bbc9242221fb661df3a292baaadf0264736f6c63430007050033",
  "immutableReferences": {},
  "source": "// SPDX-License-Identifier: MIT\npragma solidity 0.7.5;\n\ncontract Registry {\n  struct Record {\n    address owner;\n    string ddoHash;\n  }\n\n  mapping(bytes32 => Record) private didToHash;\n\n  address private owner;\n\n  constructor() {\n    owner = msg.sender;\n  }\n\n  function setRecord(bytes32 _did, string calldata _newHash) external {\n    bytes memory emptyTest = bytes(didToHash[_did].ddoHash);\n    if (emptyTest.length != 0 && didToHash[_did].owner != msg.sender) {\n      revert('DID registration failed. Invalid did private key.');\n    }\n    didToHash[_did] = Record(msg.sender, _newHash);\n  }\n\n  function getRecord(bytes32 _did) external view returns (string memory) {\n    return didToHash[_did].ddoHash;\n  }\n}\n",
  "sourcePath": "/home/min/monid/monid-did-method/packages/monid-registry-contract/contracts/Registry.sol",
  "compiler": {
    "name": "solc",
    "version": "0.7.5+commit.eb77ed08.Emscripten.clang"
  },
  "schemaVersion": "3.3.2",
  "updatedAt": "2021-07-15T07:09:31.073Z",
  "devdoc": {
    "kind": "dev",
    "methods": {},
    "version": 1
  },
  "userdoc": {
    "kind": "user",
    "methods": {},
    "version": 1
  }
}